S0170000444D5350726F6A6563745F323031352E737265632B
S11300000C9434000C9451000C9451000C94510045
S11300100C9451000C9451000C9451000C94510018
S11300200C9451000C9451000C9451000C94510008
S11300300C9451000C9451000C9451000C945100F8
S11300400C9451000C9451000C9451000C945100E8
S11300500C9451000C942D020C9451000C945100FA
S11300600C9451000C94510011241FBECFEFD8E022
S1130070DEBFCDBF11E0A0E0B1E0EEE1F8E002C0E8
S113008005900D92A23BB107D9F721E0A2EBB1E0B4
S113009001C01D92AA3BB207E1F70E9403010C9430
S11300A00D040C9400008BB984E085B989EF90E0CD
S11300B00197F1F700C0000015B889EF90E00197AF
S11300C0F1F700C0000008958BB985E085B989EF88
S11300D090E00197F1F700C0000081E085B989EF55
S11300E090E00197F1F700C0000008951092850098
S11300F0109284002E9A40E050E0E4E8F0E009C059
S1130100208131812A303D43D8F3118210824F5F20
S11301105F4F4817590734F4208131812A303D4319
S1130120A0F7EECF85B115B808951092850010920E
S113013084002F9A40E050E0E4E8F0E009C0208118
S113014031812A303D43D8F3118210824F5F5F4FD3
S11301504817590734F4208131812A303D43A0F7F0
S1130160EECF85B115B80895CF93DF93EC0181E00C
S11301700E94530089EF90E00197F1F700C000005E
S11301808EE00E94530089EF90E00197F1F700C0E0
S1130190000080E80E94530089EF90E00197F1F796
S11301A000C000008881882331F021960E946400F9
S11301B089918111FBCFDF91CF91089588E30E944B
S11301C0530089EF90E00197F1F700C0000081E04F
S11301D00E94530089EF90E00197F1F700C00000FE
S11301E08EE00E94530089EF90E00197F1F700C080
S11301F0000080E80E94530089EF90E00197F1F736
S113020000C0000008958FEF84B98AB917B8E1E8F7
S1130210F0E08081836080832B9A1092B901109260
S1130220B80181E090E09093B5018093B40190937C
S1130230B7018093B6018FE493EC0197F1F700C006
S113024000008FE880937A0080E280937C007894A9
S1130250EAE7F0E08081806480830E94DE0080E031
S113026091E00E94B4009FE7EAE1F6E09150E0409B
S1130270F040E1F700C00000C1E0D0E002EB11E083
S1130280319B05C01092B7011092B60104C0D093FF
S1130290B701C093B6018091B4019091B501009764
S11302A009F061C08091B8019091B901019709F0FA
S11302B0BFC08091B6019091B701019709F0B8C011
S11302C088E091E00E94B4002FE38DE093E0215098
S11302D080409040E1F700C0000086E191E00E9478
S11302E0B4002B9AEFE9F6E821E0E150F040204019
S11302F0E1F700C0000080E291E00E94B40085E0D4
S113030090E00E9495001092B9011092B80185E323
S113031091E00E94B4008FE39DE0E3E081509040BF
S1130320E040E1F700C0000085E491E00E94B400E1
S113033081E00E94530082E591E00E94B400F8013C
S113034080810E94640089EF90E00197F1F700C07A
S113035000009FE3EDE0F3E09150E040F040E1F76E
S113036000C000008DCF019709F062C08091B801F0
S11303709091B901892B09F05BC08091B6019091ED
S1130380B701019709F054C08AE591E00E94B400D6
S11303902FE38DE093E0215080409040E1F700C0CE
S11303A000008AE691E00E94B40085B115B8EFE937
S11303B0F6E821E0E150F0402040E1F700C0000001
S11303C085E791E00E94B40085E090E00E94760009
S11303D0D093B901C093B8018AE891E00E94B400B7
S11303E08FE39DE0E3E081509040E040E1F700C0FE
S11303F0000088E991E00E94B40081E00E9453006B
S113040082E591E00E94B400F80180810E946400BA
S113041089EF90E00197F1F700C000009FE3EDE061
S1130420F3E09150E040F040E1F700C0000028CF35
S11304308091B6019091B701892B09F021CF84EA0C
S113044091E00E94B4002FE38DE093E021508040BE
S11304509040E1F700C0000013CF1F920F920FB637
S11304600F9211242F933F934F935F936F937F9336
S11304708F939F93AF93BF93EF93FF9380917800F3
S113048082958695869583706091790070E0660FF9
S1130490771F660F771F682B80E090E00E947F0330
S11304A02DEC3CEC4CEC52E40E94EB0220E030E0FA
S11304B040E452E40E9487020E9453037093B30104
S11304C06093B2016633710528F01092B501109261
S11304D0B40106C081E090E09093B5018093B4012B
S11304E0EAE7F0E0808180648083FF91EF91BF911F
S11304F0AF919F918F917F916F915F914F913F91B8
S11305002F910F900FBE0F901F9018955058BB2736
S1130510AA270ED048C139D130F03ED120F031F4B1
S11305209F3F11F41EF42EC10EF4E095E7FB24C1A5
S1130530E92F4AD180F3BA17620773078407950736
S113054018F071F49EF562C10EF4E0950B2EBA2FEB
S1130550A02D0B01B90190010C01CA01A0011124C5
S1130560FF27591B99F0593F50F4503E68F11A1671
S1130570F040A22F232F342F4427585FF3CF469502
S113058037952795A795F0405395C9F77EF41F1624
S1130590BA0B620B730B840BBAF09150A1F0FF0FEE
S11305A0BB1F661F771F881FC2F70EC0BA0F621FDA
S11305B0731F841F48F4879577956795B795F795CA
S11305C09E3F08F0B3CF9395880F08F09927EE0F5C
S11305D09795879508950CD0E6C0DED040F0D5D02D
S11305E030F021F45F3F19F0C7C0511110C1CAC0E7
S11305F0EBD098F39923C9F35523B1F3951B550B0D
S1130600BB27AA2762177307840738F09F5F5F4FE1
S1130610220F331F441FAA1FA9F333D00E2E3AF022
S1130620E0E830D091505040E695001CCAF729D03C
S1130630FE2F27D0660F771F881FBB1F261737078B
S11306404807AB07B0E809F0BB0B802DBF01FF27BB
S113065093585F4F2AF09E3F510568F08DC0D7C074
S11306605F3FECF3983EDCF3869577956795B795F5
S1130670F7959F5FC9F7880F911D9695879597F910
S11306800895E1E0660F771F881FBB1F6217730789
S11306908407BA0720F0621B730B840BBA0BEE1F9E
S11306A088F7E095089598D088F09F5790F0B92F77
S11306B09927B751A0F0D1F0660F771F881F991FB3
S11306C01AF0BA95C9F712C0B13081F09FD0B1E0E9
S11306D008959CC0672F782F8827B85F39F0B93FF9
S11306E0CCF3869577956795B395D9F73EF49095B5
S11306F08095709561957F4F8F4F9F4F0895E89433
S113070009C097FB3EF490958095709561957F4F55
S11307108F4F9F4F9923A9F0F92F96E9BB27939503
S1130720F695879577956795B795F111F8CFFAF413
S1130730BB0F11F460FF1BC06F5F7F4F8F4F9F4F44
S113074016C0882311F096E911C0772321F09EE8A2
S1130750872F762F05C0662371F096E8862F70E008
S113076060E02AF09A95660F771F881FDAF7880FE2
S11307709695879597F9089597F99F6780E870E0B3
S113078060E008959FEF80EC089500240A94161603
S1130790170618060906089500240A94121613066B
S11307A0140605060895092E0394000C11F48823F9
S11307B052F0BB0F40F4BF2B11F460FF04C06F5F15
S11307C07F4F8F4F9F4F089557FD9058440F551FEB
S11307D059F05F3F71F04795880F97FB991F61F0BF
S11307E09F3F79F087950895121613061406551F36
S11307F0F2CF4695F1DF08C0161617061806991FA2
S1130800F1CF86957105610508940895E894BB2796
S111081066277727CB0197F90895F894FFCF58
S113081E57656C636F6D65004461726B204F757321
S113082E7473696465004C6967687473204F6E0055
S113083E4375727461696E7320436C6F73696E676E
S113084E202E2E2E004375727461696E7320436CD4
S113085E6F736564004461726B204F7574736964C1
S113086E65004C6576656C3A20004272696768745F
S113087E204F75737473696465004C69676874738B
S113088E204F6666004375727461696E73206F70D3
S113089E656E696E67202E2E2E0043757274616923
S11308AE6E73204F70656E004461726B20427269E4
S11308BE676874004F76657272696465204D6F6463
S10508CE6500BF
S9030000FC
